:100000008316FF2390008301872800308A000408AC
:10001000840A820700341F3411341F3412341F3411
:1000200010341D3415341734113415341F3407348B
:1000300004341F34173415341D341F3415341D3463
:100040000134193407341F3415341F341734153470
:080050001F341F341F341F345C
:1000D8008512051605120800851605160512080072
:1000E80085160516851205120800831205160516D1
:1000F80005128516080064008001840A04060319A5
:1001080000340406802883133E30840052307F2058
:100118000F30D2008301762AA200742078300B2297
:1001280000300B2283122208B03E0B2283122108D2
:100138000F390B228312210E0F39103E0B2279281A
:10014800A401A501201CAE282208A4070318A50AAB
:100158002308A5070310A20DA30D0310A10CA00CE2
:1001680021082004031DA6282508A1002408A000B2
:100178000800A100A30120080319D628A201A20A99
:10018800A01BC9280310A00DC3280310A30D200825
:100198002102031CD3282008A10223140310A00C59
:1001A800A20BC92823080800A100742078300B226C
:1001B80000300B2229300B2200300B2200300B229A
:1001C80006300B2200300B2201300B22831221084B
:1001D8000319F0282F30F1282E300B227928A2009D
:1001E8000830A300A4012208A10007300310A10CC5
:1001F800FF3E0310031DFB28240D2104A400031057
:10020800A20D20082402031C0B292008A402A30B1A
:10021800F72824080800A301A401742078300B22D1
:1002280040300B2283122408A2002308A1000830C2
:100238000310A20CA10CFF3E031D1C29043021024F
:1002480003182D2900300B228312A30A0319A40ACC
:10025800162979286430A0004C08BD20CE006430EF
:10026800A0004C08F320CF000A30A0004F08BD20A2
:10027800CF006430A0004C08F320D0000A30A00062
:100288005008F320D0000A30A0004D08BD20D1004E
:10029800552B8312A1010830A200831685168312FC
:1002A800A20803196829A203851E65290130A00048
:1002B800220A60290310A00DFF3E031D5E292008B5
:1002C800A1040516051253298316851283122108E5
:1002D8000800BE173E173E16BE123E103F153F14CB
:1002E8004108F3390838C100FC390238C100C41785
:1002F8004408F0390838C40045083F398038C5003B
:100308000F30C504480883394038C800C814C914D8
:1003180049140800210820040319AD29A401A40ADE
:10032800A11B9A290310A00DA10D932921082302CE
:10033800031DA02920082202031CA9292008A202C3
:100348002108031CA303A3020310A10CA00CA40BF7
:100358009A292308A1002208A0000800A401A501E9
:10036800210820040319D729A601A60AA11BC02920
:100378000310A00DA10DB9290310A40DA50D210886
:100388002302031DC92920082202031CD32920089F
:10039800A2022108031CA303A30224140310A10C26
:1003A800A00CA60BC0292508A1002408A00008005D
:1003B800BB003B080319E229BE14E329BE103E1412
:1003C8004910FF223E104914B9222E2183169C1889
:1003D800EA299B0183124C08FD2103188B179C18EE
:1003E800F32901309B0083124D08FD2103188B1758
:1003F800080083169A0003108B1B03148B131C151B
:1004080055309D00AA309D009C141C1108008312D1
:10041800A0008512A01B8516051605128512201B43
:100428008516051605128512A01A851605160512D9
:100438008512201A8516051605128512A01985162B
:10044800051605128512201985160516051285123E
:10045800A01885160516051285122018851605168A
:1004680005128316851600008312051605128316D9
:1004780085120800742078300B2200300B22AE3031
:100488000B22D5300B2280300B22A8300B223F30B4
:100498000B22D3300B2200300B2240300B228D3040
:1004A8000B2214300B22A0300B22C0300B22DA3082
:1004B8000B2212300B2281300B2200300B22D93054
:1004C8000B22F1300B22DB300B2240300B22A43000
:1004D8000B22A6300B2220300B2200300B22AF302B
:1004E8000B2279288B010730990083169F0185001C
:1004F80083128501831681132730950001308312FA
:10050800BC020030031CBD03BD023C0A03193D0AAE
:10051800031D822A3E2283169B011C141A0883128B
:10052800CC00013083169B001C141A088312CD00DE
:100538006D21FF222E210518A62A0030DC21831206
:10054800051CA32A8518AD2A0130DC218312851CDD
:10055800AA2A05199F2A0330D2071030520203181D
:10056800D201FF2205199F2AB62A0A30CE00CF00F1
:10057800D000D10055230030D8203A1BD32A74204C
:1005880021300B224D21B900BA01BA00B9016C2003
:100598004D21B9070318BA0A70207920C12A0330FF
:1005A800BA053A08A1003908A000F030A0070318DE
:1005B800A10A0530A107A200A301A4202108BA00BE
:1005C8002008B9006430A000A1013A08A300390846
:1005D800A200B2212008CC006430A000A1013A0892
:1005E800A3003908A2008E212008CD006D304C02EE
:1005F800031C0800C12A4C08A000A101E830A20091
:100608000330A300A4202108A7002008A6004D0855
:10061800A000A1010A30A200A301A4202008A60777
:100628000318A70A2108A7072030A6070318A70A56
:10063800D730A7072708CA002608CB004508520666
:10064800F0395206C500742020300B2283123E0870
:100658000B2283123F080B22831240080B228312BD
:1006680041080B22831242080B22831243080B22F3
:10067800831244080B22831245080B228312460872
:100688000B22831247080B22831248080B2283127D
:1006980049080B2283124A080B2283124B080B22AB
:1006A80079284E084E074E07013E84000520A60013
:1006B8004E084E074E07023E84000520A7004E084C
:1006C8004E074E07033E84000520A800A9014F08E5
:1006D8004F074F07013E84000520AA004F084F0727
:1006E8004F07023E84000520AB004F084F074F0715
:1006F800033E84000520AC00AD01500850075007A8
:10070800013E84000520AE00500850075007023E05
:1007180084000520AF00500850075007033E8400AE
:100728000520B000B101B201510851075107013E3F
:1007380084000520B300510851075107023E840088
:100748000520B400510851075107033E84000520D5
:10075800B5000030D8200F21A1010130902074206D
:1007680078300B2240300B228312B6010530360256
:100778000318E72BB701103037020318E52BB8012F
:10078800073038020318E02B3708263E8400013072
:10079800A500360AD12B0310A50DFF3E031DCF2B54
:1007A8002508831300050319DB2B7F30DC2B003071
:1007B8000B228312B80AC42B00300B228312B70A0B
:1007C800BF2BB60ABA2B79205C30A10005309020E7
:1007D800742078300B2240300B228312B801073086
:1007E80038020318FC2B7F300B228312B80AF32B34
:0607F80079200130D82831
:02400E00943FDD
:1042000066003C00FF00FF00FF00FF00FF00FF0012
:00000001FF
