:0A0000008316FF2390008301572BA5
:1006840000000000080083120516422385160800A6
:100694004223831205164223051208008516051607
:1006A400422385124223051208008313203084005C
:1006B4002E305E238301A72B64008001840A040684
:1006C4000319003404065F2BAF000830B000B008F3
:1006D40003197F2BB0032F08AE00300A732B0310CD
:1006E400AE0CFF3E031D712B2E1C7B2B8312851633
:1006F4007D2B831285124A23692B83168516422388
:100704004A238316851208008312A0172017201687
:100714002014211521142308F3390838A300FC39C7
:100724000238A300A6172608F0390838A6002708BF
:100734003F398038A7000F30A7042A08833940388E
:10074400AA00AA14AB142B10D12B0130B102003033
:10075400031CB203B202310A0319320A031DA72B88
:100764008B010730990083169F01033085008312A3
:100774008501831681132330950086230518C82B21
:10078400051CC22BA010D123051CC62B8518C02B19
:10079400851CCA2BA014D1238518C02BCE2B502323
:1007A40020306623831220086623831221086623DF
:1007B40083122208662383122308662383122408E3
:1007C4006623831225086623831226086623831270
:1007D40027086623831228086623831229086623C0
:1007E40083122A08662383122B08662383122C089B
:0A07F400662383122D086623452BAF
:02400E00943FDD
:00000001FF
